{
  "_format": "hh-sol-artifact-1",
  "contractName": "MiniPay",
  "sourceName": "contracts/ERC721.sol",
  "abi": [
    {
      "inputs": [
        {
          "internalType": "address",
          "name": "initialOwner",
          "type": "address"
        }
      ],
      "stateMutability": "nonpayable",
      "type": "constructor"
    },
    {
      "inputs": [
        {
          "internalType": "address",
          "name": "sender",
          "type": "address"
        },
        {
          "internalType": "uint256",
          "name": "tokenId",
          "type": "uint256"
        },
        {
          "internalType": "address",
          "name": "owner",
          "type": "address"
        }
      ],
      "name": "ERC721IncorrectOwner",
      "type": "error"
    },
    {
      "inputs": [
        {
          "internalType": "address",
          "name": "operator",
          "type": "address"
        },
        {
          "internalType": "uint256",
          "name": "tokenId",
          "type": "uint256"
        }
      ],
      "name": "ERC721InsufficientApproval",
      "type": "error"
    },
    {
      "inputs": [
        {
          "internalType": "address",
          "name": "approver",
          "type": "address"
        }
      ],
      "name": "ERC721InvalidApprover",
      "type": "error"
    },
    {
      "inputs": [
        {
          "internalType": "address",
          "name": "operator",
          "type": "address"
        }
      ],
      "name": "ERC721InvalidOperator",
      "type": "error"
    },
    {
      "inputs": [
        {
          "internalType": "address",
          "name": "owner",
          "type": "address"
        }
      ],
      "name": "ERC721InvalidOwner",
      "type": "error"
    },
    {
      "inputs": [
        {
          "internalType": "address",
          "name": "receiver",
          "type": "address"
        }
      ],
      "name": "ERC721InvalidReceiver",
      "type": "error"
    },
    {
      "inputs": [
        {
          "internalType": "address",
          "name": "sender",
          "type": "address"
        }
      ],
      "name": "ERC721InvalidSender",
      "type": "error"
    },
    {
      "inputs": [
        {
          "internalType": "uint256",
          "name": "tokenId",
          "type": "uint256"
        }
      ],
      "name": "ERC721NonexistentToken",
      "type": "error"
    },
    {
      "inputs": [],
      "name": "EnforcedPause",
      "type": "error"
    },
    {
      "inputs": [],
      "name": "ExpectedPause",
      "type": "error"
    },
    {
      "inputs": [
        {
          "internalType": "address",
          "name": "owner",
          "type": "address"
        }
      ],
      "name": "OwnableInvalidOwner",
      "type": "error"
    },
    {
      "inputs": [
        {
          "internalType": "address",
          "name": "account",
          "type": "address"
        }
      ],
      "name": "OwnableUnauthorizedAccount",
      "type": "error"
    },
    {
      "anonymous": false,
      "inputs": [
        {
          "indexed": true,
          "internalType": "address",
          "name": "owner",
          "type": "address"
        },
        {
          "indexed": true,
          "internalType": "address",
          "name": "approved",
          "type": "address"
        },
        {
          "indexed": true,
          "internalType": "uint256",
          "name": "tokenId",
          "type": "uint256"
        }
      ],
      "name": "Approval",
      "type": "event"
    },
    {
      "anonymous": false,
      "inputs": [
        {
          "indexed": true,
          "internalType": "address",
          "name": "owner",
          "type": "address"
        },
        {
          "indexed": true,
          "internalType": "address",
          "name": "operator",
          "type": "address"
        },
        {
          "indexed": false,
          "internalType": "bool",
          "name": "approved",
          "type": "bool"
        }
      ],
      "name": "ApprovalForAll",
      "type": "event"
    },
    {
      "anonymous": false,
      "inputs": [
        {
          "indexed": false,
          "internalType": "uint256",
          "name": "_fromTokenId",
          "type": "uint256"
        },
        {
          "indexed": false,
          "internalType": "uint256",
          "name": "_toTokenId",
          "type": "uint256"
        }
      ],
      "name": "BatchMetadataUpdate",
      "type": "event"
    },
    {
      "anonymous": false,
      "inputs": [
        {
          "indexed": false,
          "internalType": "uint256",
          "name": "_tokenId",
          "type": "uint256"
        }
      ],
      "name": "MetadataUpdate",
      "type": "event"
    },
    {
      "anonymous": false,
      "inputs": [
        {
          "indexed": true,
          "internalType": "address",
          "name": "previousOwner",
          "type": "address"
        },
        {
          "indexed": true,
          "internalType": "address",
          "name": "newOwner",
          "type": "address"
        }
      ],
      "name": "OwnershipTransferred",
      "type": "event"
    },
    {
      "anonymous": false,
      "inputs": [
        {
          "indexed": false,
          "internalType": "address",
          "name": "account",
          "type": "address"
        }
      ],
      "name": "Paused",
      "type": "event"
    },
    {
      "anonymous": false,
      "inputs": [
        {
          "indexed": true,
          "internalType": "address",
          "name": "from",
          "type": "address"
        },
        {
          "indexed": true,
          "internalType": "address",
          "name": "to",
          "type": "address"
        },
        {
          "indexed": true,
          "internalType": "uint256",
          "name": "tokenId",
          "type": "uint256"
        }
      ],
      "name": "Transfer",
      "type": "event"
    },
    {
      "anonymous": false,
      "inputs": [
        {
          "indexed": false,
          "internalType": "address",
          "name": "account",
          "type": "address"
        }
      ],
      "name": "Unpaused",
      "type": "event"
    },
    {
      "inputs": [
        {
          "internalType": "address",
          "name": "to",
          "type": "address"
        },
        {
          "internalType": "uint256",
          "name": "tokenId",
          "type": "uint256"
        }
      ],
      "name": "approve",
      "outputs": [],
      "stateMutability": "nonpayable",
      "type": "function"
    },
    {
      "inputs": [
        {
          "internalType": "address",
          "name": "owner",
          "type": "address"
        }
      ],
      "name": "balanceOf",
      "outputs": [
        {
          "internalType": "uint256",
          "name": "",
          "type": "uint256"
        }
      ],
      "stateMutability": "view",
      "type": "function"
    },
    {
      "inputs": [
        {
          "internalType": "uint256",
          "name": "tokenId",
          "type": "uint256"
        }
      ],
      "name": "burn",
      "outputs": [],
      "stateMutability": "nonpayable",
      "type": "function"
    },
    {
      "inputs": [
        {
          "internalType": "uint256",
          "name": "tokenId",
          "type": "uint256"
        }
      ],
      "name": "getApproved",
      "outputs": [
        {
          "internalType": "address",
          "name": "",
          "type": "address"
        }
      ],
      "stateMutability": "view",
      "type": "function"
    },
    {
      "inputs": [
        {
          "internalType": "address",
          "name": "owner",
          "type": "address"
        }
      ],
      "name": "getNFTsByAddress",
      "outputs": [
        {
          "internalType": "uint256[]",
          "name": "",
          "type": "uint256[]"
        }
      ],
      "stateMutability": "view",
      "type": "function"
    },
    {
      "inputs": [
        {
          "internalType": "address",
          "name": "owner",
          "type": "address"
        },
        {
          "internalType": "address",
          "name": "operator",
          "type": "address"
        }
      ],
      "name": "isApprovedForAll",
      "outputs": [
        {
          "internalType": "bool",
          "name": "",
          "type": "bool"
        }
      ],
      "stateMutability": "view",
      "type": "function"
    },
    {
      "inputs": [],
      "name": "name",
      "outputs": [
        {
          "internalType": "string",
          "name": "",
          "type": "string"
        }
      ],
      "stateMutability": "view",
      "type": "function"
    },
    {
      "inputs": [],
      "name": "owner",
      "outputs": [
        {
          "internalType": "address",
          "name": "",
          "type": "address"
        }
      ],
      "stateMutability": "view",
      "type": "function"
    },
    {
      "inputs": [
        {
          "internalType": "uint256",
          "name": "tokenId",
          "type": "uint256"
        }
      ],
      "name": "ownerOf",
      "outputs": [
        {
          "internalType": "address",
          "name": "",
          "type": "address"
        }
      ],
      "stateMutability": "view",
      "type": "function"
    },
    {
      "inputs": [],
      "name": "pause",
      "outputs": [],
      "stateMutability": "nonpayable",
      "type": "function"
    },
    {
      "inputs": [],
      "name": "paused",
      "outputs": [
        {
          "internalType": "bool",
          "name": "",
          "type": "bool"
        }
      ],
      "stateMutability": "view",
      "type": "function"
    },
    {
      "inputs": [],
      "name": "renounceOwnership",
      "outputs": [],
      "stateMutability": "nonpayable",
      "type": "function"
    },
    {
      "inputs": [
        {
          "internalType": "address",
          "name": "to",
          "type": "address"
        },
        {
          "internalType": "string",
          "name": "uri",
          "type": "string"
        }
      ],
      "name": "safeMint",
      "outputs": [],
      "stateMutability": "nonpayable",
      "type": "function"
    },
    {
      "inputs": [
        {
          "internalType": "address",
          "name": "from",
          "type": "address"
        },
        {
          "internalType": "address",
          "name": "to",
          "type": "address"
        },
        {
          "internalType": "uint256",
          "name": "tokenId",
          "type": "uint256"
        }
      ],
      "name": "safeTransferFrom",
      "outputs": [],
      "stateMutability": "nonpayable",
      "type": "function"
    },
    {
      "inputs": [
        {
          "internalType": "address",
          "name": "from",
          "type": "address"
        },
        {
          "internalType": "address",
          "name": "to",
          "type": "address"
        },
        {
          "internalType": "uint256",
          "name": "tokenId",
          "type": "uint256"
        },
        {
          "internalType": "bytes",
          "name": "data",
          "type": "bytes"
        }
      ],
      "name": "safeTransferFrom",
      "outputs": [],
      "stateMutability": "nonpayable",
      "type": "function"
    },
    {
      "inputs": [
        {
          "internalType": "address",
          "name": "operator",
          "type": "address"
        },
        {
          "internalType": "bool",
          "name": "approved",
          "type": "bool"
        }
      ],
      "name": "setApprovalForAll",
      "outputs": [],
      "stateMutability": "nonpayable",
      "type": "function"
    },
    {
      "inputs": [
        {
          "internalType": "bytes4",
          "name": "interfaceId",
          "type": "bytes4"
        }
      ],
      "name": "supportsInterface",
      "outputs": [
        {
          "internalType": "bool",
          "name": "",
          "type": "bool"
        }
      ],
      "stateMutability": "view",
      "type": "function"
    },
    {
      "inputs": [],
      "name": "symbol",
      "outputs": [
        {
          "internalType": "string",
          "name": "",
          "type": "string"
        }
      ],
      "stateMutability": "view",
      "type": "function"
    },
    {
      "inputs": [
        {
          "internalType": "uint256",
          "name": "tokenId",
          "type": "uint256"
        }
      ],
      "name": "tokenURI",
      "outputs": [
        {
          "internalType": "string",
          "name": "",
          "type": "string"
        }
      ],
      "stateMutability": "view",
      "type": "function"
    },
    {
      "inputs": [
        {
          "internalType": "address",
          "name": "from",
          "type": "address"
        },
        {
          "internalType": "address",
          "name": "to",
          "type": "address"
        },
        {
          "internalType": "uint256",
          "name": "tokenId",
          "type": "uint256"
        }
      ],
      "name": "transferFrom",
      "outputs": [],
      "stateMutability": "nonpayable",
      "type": "function"
    },
    {
      "inputs": [
        {
          "internalType": "address",
          "name": "newOwner",
          "type": "address"
        }
      ],
      "name": "transferOwnership",
      "outputs": [],
      "stateMutability": "nonpayable",
      "type": "function"
    },
    {
      "inputs": [],
      "name": "unpause",
      "outputs": [],
      "stateMutability": "nonpayable",
      "type": "function"
    }
  ],
  "bytecode": "0x60806040523480156200001157600080fd5b5060405162003319380380620033198339818101604052810190620000379190620002a3565b806040518060400160405280600781526020017f4d696e69506179000000000000000000000000000000000000000000000000008152506040518060400160405280600481526020017f4d494e49000000000000000000000000000000000000000000000000000000008152508160009081620000b591906200054f565b508060019081620000c791906200054f565b5050506000600760006101000a81548160ff021916908315150217905550600073ffffffffffffffffffffffffffffffffffffffff168173ffffffffffffffffffffffffffffffffffffffff16036200015a5760006040517f1e4fbdf700000000000000000000000000000000000000000000000000000000815260040162000151919062000647565b60405180910390fd5b6200016b816200017360201b60201c565b505062000664565b6000600760019054906101000a900473ffffffffffffffffffffffffffffffffffffffff16905081600760016101000a81548173ffffffffffffffffffffffffffffffffffffffff021916908373ffffffffffffffffffffffffffffffffffffffff1602179055508173ffffffffffffffffffffffffffffffffffffffff168173ffffffffffffffffffffffffffffffffffffffff167f8be0079c531659141344cd1fd0a4f28419497f9722a3daafe3b4186f6b6457e060405160405180910390a35050565b600080fd5b600073ffffffffffffffffffffffffffffffffffffffff82169050919050565b60006200026b826200023e565b9050919050565b6200027d816200025e565b81146200028957600080fd5b50565b6000815190506200029d8162000272565b92915050565b600060208284031215620002bc57620002bb62000239565b5b6000620002cc848285016200028c565b91505092915050565b600081519050919050565b7f4e487b7100000000000000000000000000000000000000000000000000000000600052604160045260246000fd5b7f4e487b7100000000000000000000000000000000000000000000000000000000600052602260045260246000fd5b600060028204905060018216806200035757607f821691505b6020821081036200036d576200036c6200030f565b5b50919050565b60008190508160005260206000209050919050565b60006020601f8301049050919050565b600082821b905092915050565b600060088302620003d77fffffffffffffffffffffffffffffffffffffffffffffffffffffffffffffffff8262000398565b620003e3868362000398565b95508019841693508086168417925050509392505050565b6000819050919050565b6000819050919050565b6000620004306200042a6200042484620003fb565b62000405565b620003fb565b9050919050565b6000819050919050565b6200044c836200040f565b620004646200045b8262000437565b848454620003a5565b825550505050565b600090565b6200047b6200046c565b6200048881848462000441565b505050565b5b81811015620004b057620004a460008262000471565b6001810190506200048e565b5050565b601f821115620004ff57620004c98162000373565b620004d48462000388565b81016020851015620004e4578190505b620004fc620004f38562000388565b8301826200048d565b50505b505050565b600082821c905092915050565b6000620005246000198460080262000504565b1980831691505092915050565b60006200053f838362000511565b9150826002028217905092915050565b6200055a82620002d5565b67ffffffffffffffff811115620005765762000575620002e0565b5b6200058282546200033e565b6200058f828285620004b4565b600060209050601f831160018114620005c75760008415620005b2578287015190505b620005be858262000531565b8655506200062e565b601f198416620005d78662000373565b60005b828110156200060157848901518255600182019150602085019450602081019050620005da565b868310156200062157848901516200061d601f89168262000511565b8355505b6001600288020188555050505b505050505050565b62000641816200025e565b82525050565b60006020820190506200065e600083018462000636565b92915050565b612ca580620006746000396000f3fe608060405234801561001057600080fd5b50600436106101425760003560e01c806370a08231116100b8578063a22cb4651161007c578063a22cb4651461033d578063b88d4fde14610359578063c87b56dd14610375578063d204c45e146103a5578063e985e9c5146103c1578063f2fde38b146103f157610142565b806370a08231146102bd578063715018a6146102ed5780638456cb59146102f75780638da5cb5b1461030157806395d89b411461031f57610142565b806323b872dd1161010a57806323b872dd146102115780633f4ba83a1461022d57806342842e0e1461023757806342966c68146102535780635c975abb1461026f5780636352211e1461028d57610142565b806301ffc9a71461014757806306fdde0314610177578063081812fc14610195578063095ea7b3146101c55780631dadae8e146101e1575b600080fd5b610161600480360381019061015c9190611eed565b61040d565b60405161016e9190611f35565b60405180910390f35b61017f61041f565b60405161018c9190611fe0565b60405180910390f35b6101af60048036038101906101aa9190612038565b6104b1565b6040516101bc91906120a6565b60405180910390f35b6101df60048036038101906101da91906120ed565b6104cd565b005b6101fb60048036038101906101f6919061212d565b6104e3565b6040516102089190612218565b60405180910390f35b61022b6004803603810190610226919061223a565b610678565b005b61023561077a565b005b610251600480360381019061024c919061223a565b61078c565b005b61026d60048036038101906102689190612038565b6107ac565b005b6102776107c3565b6040516102849190611f35565b60405180910390f35b6102a760048036038101906102a29190612038565b6107da565b6040516102b491906120a6565b60405180910390f35b6102d760048036038101906102d2919061212d565b6107ec565b6040516102e4919061229c565b60405180910390f35b6102f56108a6565b005b6102ff6108ba565b005b6103096108cc565b60405161031691906120a6565b60405180910390f35b6103276108f6565b6040516103349190611fe0565b60405180910390f35b610357600480360381019061035291906122e3565b610988565b005b610373600480360381019061036e9190612458565b61099e565b005b61038f600480360381019061038a9190612038565b6109bb565b60405161039c9190611fe0565b60405180910390f35b6103bf60048036038101906103ba919061257c565b6109cd565b005b6103db60048036038101906103d691906125d8565b610a09565b6040516103e89190611f35565b60405180910390f35b61040b6004803603810190610406919061212d565b610a9d565b005b600061041882610b23565b9050919050565b60606000805461042e90612647565b80601f016020809104026020016040519081016040528092919081815260200182805461045a90612647565b80156104a75780601f1061047c576101008083540402835291602001916104a7565b820191906000526020600020905b81548152906001019060200180831161048a57829003601f168201915b5050505050905090565b60006104bc82610b84565b506104c682610c0c565b9050919050565b6104df82826104da610c49565b610c51565b5050565b60606000600854905060008167ffffffffffffffff8111156105085761050761232d565b5b6040519080825280602002602001820160405280156105365781602001602082028036833780820191505090505b5090506000805b83811015610669573073ffffffffffffffffffffffffffffffffffffffff16636352211e826040518263ffffffff1660e01b815260040161057e919061229c565b602060405180830381865afa9250505080156105b857506040513d601f19601f820116820180604052508101906105b5919061268d565b60015b6105f5576105c46126c7565b806308c379a0036105e957506105d86126e9565b806105e357506105eb565b50610669565b505b3d6000803e3d6000fd5b8673ffffffffffffffffffffffffffffffffffffffff168173ffffffffffffffffffffffffffffffffffffffff16036106555781848480610635906127a8565b955081518110610648576106476127f0565b5b6020026020010181815250505b508080610661906127a8565b91505061053d565b50808252819350505050919050565b600073ffffffffffffffffffffffffffffffffffffffff168273ffffffffffffffffffffffffffffffffffffffff16036106ea5760006040517f64a0ae920000000000000000000000000000000000000000000000000000000081526004016106e191906120a6565b60405180910390fd5b60006106fe83836106f9610c49565b610c63565b90508373ffffffffffffffffffffffffffffffffffffffff168173ffffffffffffffffffffffffffffffffffffffff1614610774578382826040517f64283d7b00000000000000000000000000000000000000000000000000000000815260040161076b9392919061281f565b60405180910390fd5b50505050565b610782610c79565b61078a610d00565b565b6107a78383836040518060200160405280600081525061099e565b505050565b6107bf6000826107ba610c49565b610c63565b5050565b6000600760009054906101000a900460ff16905090565b60006107e582610b84565b9050919050565b60008073ffffffffffffffffffffffffffffffffffffffff168273ffffffffffffffffffffffffffffffffffffffff160361085f5760006040517f89c62b6400000000000000000000000000000000000000000000000000000000815260040161085691906120a6565b60405180910390fd5b600360008373ffffffffffffffffffffffffffffffffffffffff1673ffffffffffffffffffffffffffffffffffffffff168152602001908152602001600020549050919050565b6108ae610c79565b6108b86000610d63565b565b6108c2610c79565b6108ca610e29565b565b6000600760019054906101000a900473ffffffffffffffffffffffffffffffffffffffff16905090565b60606001805461090590612647565b80601f016020809104026020016040519081016040528092919081815260200182805461093190612647565b801561097e5780601f106109535761010080835404028352916020019161097e565b820191906000526020600020905b81548152906001019060200180831161096157829003601f168201915b5050505050905090565b61099a610993610c49565b8383610e8c565b5050565b6109a9848484610678565b6109b584848484610ffb565b50505050565b60606109c6826111b2565b9050919050565b6109d5610c79565b6000600860008154809291906109ea906127a8565b9190505590506109fa83826112c5565b610a0481836112e3565b505050565b6000600560008473ffffffffffffffffffffffffffffffffffffffff1673ffffffffffffffffffffffffffffffffffffffff16815260200190815260200160002060008373ffffffffffffffffffffffffffffffffffffffff1673ffffffffffffffffffffffffffffffffffffffff16815260200190815260200160002060009054906101000a900460ff16905092915050565b610aa5610c79565b600073ffffffffffffffffffffffffffffffffffffffff168173ffffffffffffffffffffffffffffffffffffffff1603610b175760006040517f1e4fbdf7000000000000000000000000000000000000000000000000000000008152600401610b0e91906120a6565b60405180910390fd5b610b2081610d63565b50565b6000634906490660e01b7bffffffffffffffffffffffffffffffffffffffffffffffffffffffff1916827bffffffffffffffffffffffffffffffffffffffffffffffffffffffff19161480610b7d5750610b7c8261133f565b5b9050919050565b600080610b9083611421565b9050600073ffffffffffffffffffffffffffffffffffffffff168173ffffffffffffffffffffffffffffffffffffffff1603610c0357826040517f7e273289000000000000000000000000000000000000000000000000000000008152600401610bfa919061229c565b60405180910390fd5b80915050919050565b60006004600083815260200190815260200160002060009054906101000a900473ffffffffffffffffffffffffffffffffffffffff169050919050565b600033905090565b610c5e838383600161145e565b505050565b6000610c70848484611623565b90509392505050565b610c81610c49565b73ffffffffffffffffffffffffffffffffffffffff16610c9f6108cc565b73ffffffffffffffffffffffffffffffffffffffff1614610cfe57610cc2610c49565b6040517f118cdaa7000000000000000000000000000000000000000000000000000000008152600401610cf591906120a6565b60405180910390fd5b565b610d08611641565b6000600760006101000a81548160ff0219169083151502179055507f5db9ee0a495bf2e6ff9c91a7834c1ba4fdd244a5e8aa4e537bd38aeae4b073aa610d4c610c49565b604051610d5991906120a6565b60405180910390a1565b6000600760019054906101000a900473ffffffffffffffffffffffffffffffffffffffff16905081600760016101000a81548173ffffffffffffffffffffffffffffffffffffffff021916908373ffffffffffffffffffffffffffffffffffffffff1602179055508173ffffffffffffffffffffffffffffffffffffffff168173ffffffffffffffffffffffffffffffffffffffff167f8be0079c531659141344cd1fd0a4f28419497f9722a3daafe3b4186f6b6457e060405160405180910390a35050565b610e31611681565b6001600760006101000a81548160ff0219169083151502179055507f62e78cea01bee320cd4e420270b5ea74000d11b0c9f74754ebdbfc544b05a258610e75610c49565b604051610e8291906120a6565b60405180910390a1565b600073ffffffffffffffffffffffffffffffffffffffff168273ffffffffffffffffffffffffffffffffffffffff1603610efd57816040517f5b08ba18000000000000000000000000000000000000000000000000000000008152600401610ef491906120a6565b60405180910390fd5b80600560008573ffffffffffffffffffffffffffffffffffffffff1673ffffffffffffffffffffffffffffffffffffffff16815260200190815260200160002060008473ffffffffffffffffffffffffffffffffffffffff1673ffffffffffffffffffffffffffffffffffffffff16815260200190815260200160002060006101000a81548160ff0219169083151502179055508173ffffffffffffffffffffffffffffffffffffffff168373ffffffffffffffffffffffffffffffffffffffff167f17307eab39ab6107e8899845ad3d59bd9653f200f220920489ca2b5937696c3183604051610fee9190611f35565b60405180910390a3505050565b60008373ffffffffffffffffffffffffffffffffffffffff163b11156111ac578273ffffffffffffffffffffffffffffffffffffffff1663150b7a0261103f610c49565b8685856040518563ffffffff1660e01b815260040161106194939291906128ab565b6020604051808303816000875af192505050801561109d57506040513d601f19601f8201168201806040525081019061109a919061290c565b60015b611121573d80600081146110cd576040519150601f19603f3d011682016040523d82523d6000602084013e6110d2565b606091505b50600081510361111957836040517f64a0ae9200000000000000000000000000000000000000000000000000000000815260040161111091906120a6565b60405180910390fd5b805181602001fd5b63150b7a0260e01b7bffffffffffffffffffffffffffffffffffffffffffffffffffffffff1916817bffffffffffffffffffffffffffffffffffffffffffffffffffffffff1916146111aa57836040517f64a0ae920000000000000000000000000000000000000000000000000000000081526004016111a191906120a6565b60405180910390fd5b505b50505050565b60606111bd82610b84565b5060006006600084815260200190815260200160002080546111de90612647565b80601f016020809104026020016040519081016040528092919081815260200182805461120a90612647565b80156112575780601f1061122c57610100808354040283529160200191611257565b820191906000526020600020905b81548152906001019060200180831161123a57829003601f168201915b5050505050905060006112686116c2565b9050600081510361127d5781925050506112c0565b6000825111156112b257808260405160200161129a929190612975565b604051602081830303815290604052925050506112c0565b6112bb846116d9565b925050505b919050565b6112df828260405180602001604052806000815250611742565b5050565b806006600084815260200190815260200160002090816113039190612b45565b507ff8e1a15aba9398e019f0b49df1a4fde98ee17ae345cb5f6b5e2c27f5033e8ce782604051611333919061229c565b60405180910390a15050565b60007f80ac58cd000000000000000000000000000000000000000000000000000000007bffffffffffffffffffffffffffffffffffffffffffffffffffffffff1916827bffffffffffffffffffffffffffffffffffffffffffffffffffffffff1916148061140a57507f5b5e139f000000000000000000000000000000000000000000000000000000007bffffffffffffffffffffffffffffffffffffffffffffffffffffffff1916827bffffffffffffffffffffffffffffffffffffffffffffffffffffffff1916145b8061141a57506114198261175e565b5b9050919050565b60006002600083815260200190815260200160002060009054906101000a900473ffffffffffffffffffffffffffffffffffffffff169050919050565b80806114975750600073ffffffffffffffffffffffffffffffffffffffff168273ffffffffffffffffffffffffffffffffffffffff1614155b156115cb5760006114a784610b84565b9050600073ffffffffffffffffffffffffffffffffffffffff168373ffffffffffffffffffffffffffffffffffffffff161415801561151257508273ffffffffffffffffffffffffffffffffffffffff168173ffffffffffffffffffffffffffffffffffffffff1614155b801561152557506115238184610a09565b155b1561156757826040517fa9fbf51f00000000000000000000000000000000000000000000000000000000815260040161155e91906120a6565b60405180910390fd5b81156115c957838573ffffffffffffffffffffffffffffffffffffffff168273ffffffffffffffffffffffffffffffffffffffff167f8c5be1e5ebec7d5bd14f71427d1e84f3dd0314c0f7b2291e5b200ac8c7c3b92560405160405180910390a45b505b836004600085815260200190815260200160002060006101000a81548173ffffffffffffffffffffffffffffffffffffffff021916908373ffffffffffffffffffffffffffffffffffffffff16021790555050505050565b600061162d611681565b6116388484846117c8565b90509392505050565b6116496107c3565b61167f576040517f8dfc202b00000000000000000000000000000000000000000000000000000000815260040160405180910390fd5b565b6116896107c3565b156116c0576040517fd93c066500000000000000000000000000000000000000000000000000000000815260040160405180910390fd5b565b606060405180602001604052806000815250905090565b60606116e482610b84565b5060006116ef6116c2565b9050600081511161170f576040518060200160405280600081525061173a565b80611719846119e2565b60405160200161172a929190612975565b6040516020818303038152906040525b915050919050565b61174c8383611ab0565b6117596000848484610ffb565b505050565b60007f01ffc9a7000000000000000000000000000000000000000000000000000000007bffffffffffffffffffffffffffffffffffffffffffffffffffffffff1916827bffffffffffffffffffffffffffffffffffffffffffffffffffffffff1916149050919050565b6000806117d484611421565b9050600073ffffffffffffffffffffffffffffffffffffffff168373ffffffffffffffffffffffffffffffffffffffff161461181657611815818486611ba9565b5b600073ffffffffffffffffffffffffffffffffffffffff168173ffffffffffffffffffffffffffffffffffffffff16146118a75761185860008560008061145e565b6001600360008373ffffffffffffffffffffffffffffffffffffffff1673ffffffffffffffffffffffffffffffffffffffff168152602001908152602001600020600082825403925050819055505b600073ffffffffffffffffffffffffffffffffffffffff168573ffffffffffffffffffffffffffffffffffffffff161461192a576001600360008773ffffffffffffffffffffffffffffffffffffffff1673ffffffffffffffffffffffffffffffffffffffff168152602001908152602001600020600082825401925050819055505b846002600086815260200190815260200160002060006101000a81548173ffffffffffffffffffffffffffffffffffffffff021916908373ffffffffffffffffffffffffffffffffffffffff160217905550838573ffffffffffffffffffffffffffffffffffffffff168273ffffffffffffffffffffffffffffffffffffffff167fddf252ad1be2c89b69c2b068fc378daa952ba7f163c4a11628f55a4df523b3ef60405160405180910390a4809150509392505050565b6060600060016119f184611c6d565b01905060008167ffffffffffffffff811115611a1057611a0f61232d565b5b6040519080825280601f01601f191660200182016040528015611a425781602001600182028036833780820191505090505b509050600082602001820190505b600115611aa5578080600190039150507f3031323334353637383961626364656600000000000000000000000000000000600a86061a8153600a8581611a9957611a98612c17565b5b04945060008503611a50575b819350505050919050565b600073ffffffffffffffffffffffffffffffffffffffff168273ffffffffffffffffffffffffffffffffffffffff1603611b225760006040517f64a0ae92000000000000000000000000000000000000000000000000000000008152600401611b1991906120a6565b60405180910390fd5b6000611b3083836000610c63565b9050600073ffffffffffffffffffffffffffffffffffffffff168173ffffffffffffffffffffffffffffffffffffffff1614611ba45760006040517f73c6ac6e000000000000000000000000000000000000000000000000000000008152600401611b9b91906120a6565b60405180910390fd5b505050565b611bb4838383611dc0565b611c6857600073ffffffffffffffffffffffffffffffffffffffff168373ffffffffffffffffffffffffffffffffffffffff1603611c2957806040517f7e273289000000000000000000000000000000000000000000000000000000008152600401611c20919061229c565b60405180910390fd5b81816040517f177e802f000000000000000000000000000000000000000000000000000000008152600401611c5f929190612c46565b60405180910390fd5b505050565b600080600090507a184f03e93ff9f4daa797ed6e38ed64bf6a1f0100000000000000008310611ccb577a184f03e93ff9f4daa797ed6e38ed64bf6a1f0100000000000000008381611cc157611cc0612c17565b5b0492506040810190505b6d04ee2d6d415b85acef81000000008310611d08576d04ee2d6d415b85acef81000000008381611cfe57611cfd612c17565b5b0492506020810190505b662386f26fc100008310611d3757662386f26fc100008381611d2d57611d2c612c17565b5b0492506010810190505b6305f5e1008310611d60576305f5e1008381611d5657611d55612c17565b5b0492506008810190505b6127108310611d85576127108381611d7b57611d7a612c17565b5b0492506004810190505b60648310611da85760648381611d9e57611d9d612c17565b5b0492506002810190505b600a8310611db7576001810190505b80915050919050565b60008073ffffffffffffffffffffffffffffffffffffffff168373ffffffffffffffffffffffffffffffffffffffff1614158015611e7857508273ffffffffffffffffffffffffffffffffffffffff168473ffffffffffffffffffffffffffffffffffffffff161480611e395750611e388484610a09565b5b80611e7757508273ffffffffffffffffffffffffffffffffffffffff16611e5f83610c0c565b73ffffffffffffffffffffffffffffffffffffffff16145b5b90509392505050565b6000604051905090565b600080fd5b600080fd5b60007fffffffff0000000000000000000000000000000000000000000000000000000082169050919050565b611eca81611e95565b8114611ed557600080fd5b50565b600081359050611ee781611ec1565b92915050565b600060208284031215611f0357611f02611e8b565b5b6000611f1184828501611ed8565b91505092915050565b60008115159050919050565b611f2f81611f1a565b82525050565b6000602082019050611f4a6000830184611f26565b92915050565b600081519050919050565b600082825260208201905092915050565b60005b83811015611f8a578082015181840152602081019050611f6f565b60008484015250505050565b6000601f19601f8301169050919050565b6000611fb282611f50565b611fbc8185611f5b565b9350611fcc818560208601611f6c565b611fd581611f96565b840191505092915050565b60006020820190508181036000830152611ffa8184611fa7565b905092915050565b6000819050919050565b61201581612002565b811461202057600080fd5b50565b6000813590506120328161200c565b92915050565b60006020828403121561204e5761204d611e8b565b5b600061205c84828501612023565b91505092915050565b600073ffffffffffffffffffffffffffffffffffffffff82169050919050565b600061209082612065565b9050919050565b6120a081612085565b82525050565b60006020820190506120bb6000830184612097565b92915050565b6120ca81612085565b81146120d557600080fd5b50565b6000813590506120e7816120c1565b92915050565b6000806040838503121561210457612103611e8b565b5b6000612112858286016120d8565b925050602061212385828601612023565b9150509250929050565b60006020828403121561214357612142611e8b565b5b6000612151848285016120d8565b91505092915050565b600081519050919050565b600082825260208201905092915050565b6000819050602082019050919050565b61218f81612002565b82525050565b60006121a18383612186565b60208301905092915050565b6000602082019050919050565b60006121c58261215a565b6121cf8185612165565b93506121da83612176565b8060005b8381101561220b5781516121f28882612195565b97506121fd836121ad565b9250506001810190506121de565b5085935050505092915050565b6000602082019050818103600083015261223281846121ba565b905092915050565b60008060006060848603121561225357612252611e8b565b5b6000612261868287016120d8565b9350506020612272868287016120d8565b925050604061228386828701612023565b9150509250925092565b61229681612002565b82525050565b60006020820190506122b1600083018461228d565b92915050565b6122c081611f1a565b81146122cb57600080fd5b50565b6000813590506122dd816122b7565b92915050565b600080604083850312156122fa576122f9611e8b565b5b6000612308858286016120d8565b9250506020612319858286016122ce565b9150509250929050565b600080fd5b600080fd5b7f4e487b7100000000000000000000000000000000000000000000000000000000600052604160045260246000fd5b61236582611f96565b810181811067ffffffffffffffff821117156123845761238361232d565b5b80604052505050565b6000612397611e81565b90506123a3828261235c565b919050565b600067ffffffffffffffff8211156123c3576123c261232d565b5b6123cc82611f96565b9050602081019050919050565b82818337600083830152505050565b60006123fb6123f6846123a8565b61238d565b90508281526020810184848401111561241757612416612328565b5b6124228482856123d9565b509392505050565b600082601f83011261243f5761243e612323565b5b813561244f8482602086016123e8565b91505092915050565b6000806000806080858703121561247257612471611e8b565b5b6000612480878288016120d8565b9450506020612491878288016120d8565b93505060406124a287828801612023565b925050606085013567ffffffffffffffff8111156124c3576124c2611e90565b5b6124cf8782880161242a565b91505092959194509250565b600067ffffffffffffffff8211156124f6576124f561232d565b5b6124ff82611f96565b9050602081019050919050565b600061251f61251a846124db565b61238d565b90508281526020810184848401111561253b5761253a612328565b5b6125468482856123d9565b509392505050565b600082601f83011261256357612562612323565b5b813561257384826020860161250c565b91505092915050565b6000806040838503121561259357612592611e8b565b5b60006125a1858286016120d8565b925050602083013567ffffffffffffffff8111156125c2576125c1611e90565b5b6125ce8582860161254e565b9150509250929050565b600080604083850312156125ef576125ee611e8b565b5b60006125fd858286016120d8565b925050602061260e858286016120d8565b9150509250929050565b7f4e487b7100000000000000000000000000000000000000000000000000000000600052602260045260246000fd5b6000600282049050600182168061265f57607f821691505b60208210810361267257612671612618565b5b50919050565b600081519050612687816120c1565b92915050565b6000602082840312156126a3576126a2611e8b565b5b60006126b184828501612678565b91505092915050565b60008160e01c9050919050565b600060033d11156126e65760046000803e6126e36000516126ba565b90505b90565b600060443d10612776576126fb611e81565b60043d036004823e80513d602482011167ffffffffffffffff82111715612723575050612776565b808201805167ffffffffffffffff8111156127415750505050612776565b80602083010160043d03850181111561275e575050505050612776565b61276d8260200185018661235c565b82955050505050505b90565b7f4e487b7100000000000000000000000000000000000000000000000000000000600052601160045260246000fd5b60006127b382612002565b91507fffffffffffffffffffffffffffffffffffffffffffffffffffffffffffffffff82036127e5576127e4612779565b5b600182019050919050565b7f4e487b7100000000000000000000000000000000000000000000000000000000600052603260045260246000fd5b60006060820190506128346000830186612097565b612841602083018561228d565b61284e6040830184612097565b949350505050565b600081519050919050565b600082825260208201905092915050565b600061287d82612856565b6128878185612861565b9350612897818560208601611f6c565b6128a081611f96565b840191505092915050565b60006080820190506128c06000830187612097565b6128cd6020830186612097565b6128da604083018561228d565b81810360608301526128ec8184612872565b905095945050505050565b60008151905061290681611ec1565b92915050565b60006020828403121561292257612921611e8b565b5b6000612930848285016128f7565b91505092915050565b600081905092915050565b600061294f82611f50565b6129598185612939565b9350612969818560208601611f6c565b80840191505092915050565b60006129818285612944565b915061298d8284612944565b91508190509392505050565b60008190508160005260206000209050919050565b60006020601f8301049050919050565b600082821b905092915050565b6000600883026129fb7fffffffffffffffffffffffffffffffffffffffffffffffffffffffffffffffff826129be565b612a0586836129be565b95508019841693508086168417925050509392505050565b6000819050919050565b6000612a42612a3d612a3884612002565b612a1d565b612002565b9050919050565b6000819050919050565b612a5c83612a27565b612a70612a6882612a49565b8484546129cb565b825550505050565b600090565b612a85612a78565b612a90818484612a53565b505050565b5b81811015612ab457612aa9600082612a7d565b600181019050612a96565b5050565b601f821115612af957612aca81612999565b612ad3846129ae565b81016020851015612ae2578190505b612af6612aee856129ae565b830182612a95565b50505b505050565b600082821c905092915050565b6000612b1c60001984600802612afe565b1980831691505092915050565b6000612b358383612b0b565b9150826002028217905092915050565b612b4e82611f50565b67ffffffffffffffff811115612b6757612b6661232d565b5b612b718254612647565b612b7c828285612ab8565b600060209050601f831160018114612baf5760008415612b9d578287015190505b612ba78582612b29565b865550612c0f565b601f198416612bbd86612999565b60005b82811015612be557848901518255600182019150602085019450602081019050612bc0565b86831015612c025784890151612bfe601f891682612b0b565b8355505b6001600288020188555050505b505050505050565b7f4e487b7100000000000000000000000000000000000000000000000000000000600052601260045260246000fd5b6000604082019050612c5b6000830185612097565b612c68602083018461228d565b939250505056fea26469706673582212209656a4f68a70af81ff5338c40e39b1d0f09da965b56084bba114e54808869df664736f6c63430008140033",
  "linkReferences": {},
  "deployedLinkReferences": {}
}